:020000040800F2
:10000000D8090020DD0100080D2200088120000829
:10001000092200084902000893300008000000008F
:100020000000000000000000000000004501000882
:100030006D02000800000000890100080526000884
:10004000F7010008F7010008F7010008D1250008B2
:10005000F7010008F7010008F7010008F7010008A0
:10006000F7010008F7010008F7010008F701000890
:10007000F70100084D020008F70100085D020008C2
:10008000F7010008F7010008F7010008F701000870
:10009000E12F0008F7010008F7010008F701000848
:1000A000F701000821270008F7010008F701000800
:1000B000F701000831270008F7010008F7010008E0
:1000C000F7010008F7010008F7010008E125000822
:1000D000F70100086D2B0008F70100087D2B0008D0
:1000E000F7010008F7010008F7010008F701000810
:1000F000F7010008F7010008F7010008F701000800
:10010000F7010008F7010008F7010008F7010008EF
:10011000F7010008F7010008F7010008F7010008DF
:10012000F7010008F7010008F7010008F7010008CF
:10013000DFF80CD000F076F80048004709310008DD
:10014000D8090020224B19680868B0E8F00F80F346
:100150000988BFF36F8F4FF0000080F311884EF0D5
:100160000D0E70470000000006480068006880F32C
:10017000088862B661B6BFF34F8FBFF36F8F00DFA1
:1001800000BF00BF08ED00E0EFF30980BFF36F8F01
:100190000F4B1A6820E9F00F106008B54FF05000BF
:1001A00080F31188BFF34F8FBFF36F8F03F056F8C2
:1001B0004FF0000080F31188BDE808401968086816
:1001C000B0E8F00F80F30988BFF36F8F704700BF6E
:1001D00018000020EFF305807047000006488047B4
:1001E00006480047FEE7FEE7FEE7FEE7FEE7FEE71C
:1001F000FEE7FEE7FEE7FEE7C9260008310100083A
:10020000D2B201E000F8012B491EFBD27047002258
:10021000F6E710B513460A4604461946FFF7F0FF05
:10022000204610BD064C074D06E0E06840F0010393
:1002300094E8070098471034AC42F6D3FFF77CFFF0
:10024000583400087834000800BFFEE710B50248B3
:1002500000F01EF910BD0000F000002010B50248AB
:1002600000F016F910BD0000F4010020704770473F
:1002700030B50546002421E04FF4004020412840DD
:1002800030B91748006840F020001549086005E0C3
:100290001348006820F020001149086010480068E9
:1002A00040F008000E490860012002F020FF0C48D1
:1002B000006820F008000A490860641C102CDBDB91
:1002C0000848006840F4004006490860012002F038
:1002D0000EFF0448006820F400400249086030BD69
:1002E0000C0C01400C08014070B50446002594F840
:1002F0002100022803D00420A0630125C1E020686A
:10030000006820F00E00216808602068006820F076
:100310000100216808605C492068884252D95A4926
:1003200078392068884201D1012047E05649643974
:100330002068884201D1102040E05349503920689C
:10034000884201D1801539E04F493C392068884204
:1003500001D1801432E04C4928392068884202D10A
:100360004FF480302AE0484914392068884202D18D
:100370004FF4801022E044492068884201D14004B3
:100380001CE042492068884201D1012016E03F4923
:1003900014312068884201D110200FE03B492831F8
:1003A0002068884201D1801508E038493C31206836
:1003B000884201D1801401E04FF480303349091F95
:1003C000086051E0304978392068884201D1012025
:1003D00047E02D4964392068884201D1102040E06F
:1003E000294950392068884201D1801539E02649D1
:1003F0003C392068884201D1801432E022492839F2
:100400002068884202D14FF480302AE01E49143916
:100410002068884202D14FF4801022E01A492068F7
:10042000884201D140041CE018492068884201D16B
:10043000012016E0154914312068884201D11020AE
:100440000FE0124928312068884201D1801508E068
:100450000E493C312068884201D1801401E04FF4FC
:100460008030094980394860012084F8210000BFAC
:10047000002084F8200000BF606B10B12046616B43
:100480008847284670BD00008000024008040240F2
:1004900070B50446E06B05682068066894F8401063
:1004A000042088402840002875D006F00400002869
:1004B000FAD02068006800F0200028B920680068A1
:1004C00020F0040021680860D5492068884254D98A
:1004D000D34978392068884201D1042049E0D049C5
:1004E00064392068884201D1402042E0CC4950392B
:1004F0002068884201D100153BE0C9493C39206899
:10050000884202D14FF4804033E0C5492839206841
:10051000884202D14FF480202BE0C1491439206871
:10052000884202D14FF4800023E0BD492068884210
:1005300001D1C0041DE0BB492068884201D10420DC
:1005400017E0B84914312068884201D1402010E0FA
:10055000B44928312068884201D1001509E0B14929
:100560003C312068884202D14FF4804001E04FF4D2
:100570008020AC49091F086054E0A94978392068F7
:10058000884201D104204AE0A549643920688842A4
:1005900002D1402043E04CE0A14950392068884214
:1005A00001D100153BE09E493C392068884202D1C8
:1005B0004FF4804033E09A4928392068884202D1BC
:1005C0004FF480202BE0964914392068884202D1EC
:1005D0004FF4800023E092492068884201D1C00492
:1005E0001DE090492068884201D1042017E08D4920
:1005F00014312068884201D1402010E08949283117
:100600002068884201D1001509E086493C31206804
:10061000884202D14FF4804001E04FF480208049AD
:1006200080394860E06A002802D02046E16A8847A5
:10063000F4E094F84010022088402840002871D04F
:1006400006F002000028FAD02068006800F02000C0
:1006500040B92068006820F00A0021680860012085
:1006600084F821006E492068884254D96C49783951
:100670002068884201D1022049E069496439206834
:10068000884201D1202042E06549503920688842E3
:1006900001D140153BE062493C392068884202D1D3
:1006A0004FF4005033E05E4928392068884202D177
:1006B0004FF400302BE05A4914392068884202D1A7
:1006C0004FF4001023E056492068884201D180048D
:1006D0001DE054492068884201D1022017E05149A9
:1006E00014312068884201D1202010E04D49283182
:1006F0002068884201D1401509E04A493C31206810
:10070000884202D14FF4005001E04FF400304549D7
:10071000091F086054E0424978392068884202D1B4
:1007200002204AE057E03E4964392068884201D1FE
:10073000202042E03A4950392068884201D14015D2
:100740003BE037493C392068884202D14FF40050E1
:1007500033E0334928392068884202D14FF4003011
:100760002BE02F4914392068884202D14FF4001041
:1007700023E02B492068884201D180041DE02949EB
:100780002068884201D1022017E0264914312068F0
:10079000884201D1202010E0224928312068884277
:1007A00001D1401509E01F493C312068884202D13F
:1007B0004FF4005001E04FF400301949803948608F
:1007C00000BF002084F8200000BFA06A30B320469C
:1007D000A16A884722E094F8401008208840284009
:1007E000E0B106F00800C8B12068006820F00E00F3
:1007F0002168086094F8401001208840E16B48604F
:100800000120A06384F8210000BF002084F82000AC
:1008100000BF206B10B12046216B884770BD0000DF
:10082000800002400804024070B5044600F0B6F9AA
:1008300006462546681C10B104480078054400BFF0
:1008400000F0ACF9801BA842FAD370BD1000002064
:100850002DE9F847024600239C467BE14FF0010852
:1008600008FA03F4D1F8008008EA0400A0427DD120
:10087000DFF8F4A2D1F80480A8EB0A09D0453AD0F9
:1008800014DCB8F1030F50D009DCB8F1000F31D0FF
:10089000B8F1010F1CD0B8F1020F49D120E0B8F136
:1008A000110F18D0B8F1120F42D11EE0B9F5881F10
:1008B00025D006DCB9F5803F20D0B9F5801F37D1AF
:1008C0001AE0B9F5001F18D0B9F5041F30D117E0B0
:1008D000D1F80CC02DE0D1F80C8008F1040C28E010
:1008E000D1F80C8008F1080C23E0D1F80C8008F155
:1008F0000C0C1EE000BF00BF00BF00BF00BF00BF68
:10090000D1F80880B8F1000F02D14FF0040C0BE0D1
:10091000D1F80880B8F1010F03D14FF0080C146131
:1009200002E04FF0080C546103E04FF0000C00E0CF
:1009300000BF00BFFF2801D8904601E002F1040883
:100940004646FF2802D84FEA830803E0A3F10808CF
:100950004FEA88084746D6F800804FF00F0909FA99
:1009600007F928EA09080CFA07F900E07AE048EAF2
:100970000908C6F80080D1F8048008F08058B8F162
:10098000805F6FD100BFDFF8E481D8F8188048F0AD
:100990000108DFF8D891C9F81880C846D8F818803F
:1009A00008F00108CDF8008000BF00BF4FEAB93859
:1009B0004FEA930958F829504FEA83784FEA18799B
:1009C0004FF00F0808FA09F825EA0805DFF8A081BA
:1009D000424502D14FF0000824E0DFF898814245FB
:1009E00002D14FF001081DE0DFF88C81424502D1B1
:1009F0004FF0020816E0DFF88481424502D14FF043
:100A000003080FE0DFF87881424502D14FF0040877
:100A100008E0DFF87081424502D14FF0050801E09F
:100A20004FF006084FEA83794FEA197908FA09F876
:100A300048EA0505DFF850814FEA930948F8295044
:100A4000D1F8048008F48038B8F5803F0BD1DFF886
:100A50003C81D8F8008048EA0008DFF83091C9F8F6
:100A600000800AE075E0DFF82481D8F8008028EAE9
:100A70000008DFF81891C9F80080D1F8048008F464
:100A80000038B8F5003F0ED1DFF8008108F1040806
:100A9000D8F8008048EA0008DFF8F09009F104096E
:100AA000C9F800800DE0DFF8E48008F10408D8F808
:100AB000008028EA0008DFF8D49009F10409C9F899
:100AC0000080D1F8048008F48018B8F5801F0ED19A
:100AD000DFF8B88008F10808D8F8008048EA000874
:100AE000DFF8A89009F10809C9F800800DE0DFF8E7
:100AF0009C8008F10808D8F8008028EA0008DFF890
:100B00008C9009F10809C9F80080D1F8048008F434
:100B10000018B8F5001F0ED1DFF8708008F10C083E
:100B2000D8F8008048EA0008DFF8609009F10C0965
:100B3000C9F800800DE0DFF8548008F10C08D8F8FF
:100B4000008028EA0008DFF8449009F10C09C9F890
:100B500000805B1CD1F8008028FA03F8B8F1000F80
:100B60007FF47CAEBDE8F887000011100010024051
:100B700000080140000C0140001001400014014039
:100B800000180140001C0140080001400004014021
:100B90000AB1016101E00B0403617047014800687C
:100BA00070470000080000200348006803490978E6
:100BB0000844014908607047080000201000002028
:100BC00010B50848006840F010000649086003208E
:100BD00000F0C4F8002000F007F800F041F8002011
:100BE00010BD00000020024070B588B0044600250A
:100BF000002600222146192000F072F8192000F08A
:100C00005FF800BF1248C06940F002001049C86197
:100C10000846C06900F00200019000BF00BF02A9B1
:100C200003A800F039FB00F05FFB05460948B5FB5F
:100C3000F0F0461E08480949086040F2E7310748CD
:100C4000C1604660002101618160012008B070BD73
:100C50000010024040420F00002C0140A40400207C
:100C600008B500BF1448806940F00100124988614E
:100C70000846806900F00100009000BF00BF00BF7F
:100C80000846C06940F08050C8610846C06900F05D
:100C90008050009000BF00BF00220F21901E00F086
:100CA0001FF800BF0549486820F0E06040F0007080
:100CB000486000BF08BD0000001002400000014075
:100CC00001460846002809DB00F01F0301229A4074
:100CD00043099B0003F1E023C3F8002100BF7047E4
:100CE0002DE9F05F80460D461646002702F0D4F944
:100CF000074639462A46334601F00700C0F1070A85
:100D0000BAF1040F02D94FF0040A01E0C0F1070A5A
:100D1000D14600F1040ABAF1070F02D24FF0000ADF
:100D200001E0A0F1030AD4464FF0010A0AFA09FAD9
:100D3000AAF1010A0AEA020A0AFA0CFA4FF0010BB8
:100D40000BFA0CFBABF1010B0BEA030B4AEA0B04A9
:100D50002146404602F0A8F9BDE8F09F00BF00F030
:100D60000702064B19684FF6FF031940044B0B436B
:100D700043EA0221014B196000BF70470CED00E00F
:100D80000000FA05704770472DE9F04105460E4610
:100D90001746984606F0070105F5947000EB4114DC
:100DA0006761C4F818800020E061607006F00700F9
:100DB000207006F0070020B92146286801F0E6FE01
:100DC00003E02146286801F0E1FE0020BDE8F08143
:100DD0002DE9F04105460E461746984606F00701F4
:100DE00005F1280000EB41146761C4F81880002069
:100DF000E0610120607006F00700207006F0070037
:100E000020B92146286801F0C1FE03E02146286888
:100E100001F0BCFE0020BDE8F08110B5044620685A
:100E200002F0E6F800F40040B0F5004F02D1204691
:100E300001F0EDF9206802F0DBF800F48060B0F515
:100E4000806F0ED12068B0F8440020F480602168E3
:100E5000A1F84400204600F0A0F80021204600F050
:100E60009FF8206802F0C4F800F48040B0F5804F8D
:100E700007D12068B0F8440020F480402168A1F830
:100E80004400206802F0B4F800F40050B0F5005FB0
:100E900007D12068B0F8440020F400502168A1F880
:100EA0004400206802F0A4F800F48050B0F5805FA0
:100EB0001CD12068B0F840004FF6FB710840216853
:100EC000A1F840002068B0F840004FF6F7710840E4
:100ED0002168A1F84000204600F060F82068B0F8D2
:100EE000440020F480502168A1F84400206802F0FA
:100EF0007FF800F40060B0F5006F2AD12068B0F8E8
:100F0000400040F008002168A1F840002068B0F8D7
:100F1000440020F400602168A1F844002068B0F883
:100F2000400040F004002168A1F84000206802F071
:100F30005FF800F48050B0F5805F07D12068B0F80A
:100F4000440020F480502168A1F84400204600F0BD
:100F500043F8206802F04CF800F40070B0F5007F10
:100F60000AD12068B0F8440020F400702168A1F88C
:100F70004400204600F013F8206802F039F800F42D
:100F80008070B0F5807F07D12068B0F8440020F46D
:100F900080702168A1F8440010BD70477047704709
:100FA00070B504460D4600BF94F82802012801D10F
:100FB000022070BD012084F8280200BF84F824506C
:100FC0002946206802F03DF800BF002084F828027E
:100FD00000BF00BFEDE7704770470000F8B504465A
:100FE00000260025207800F0010000286BD00027A3
:100FF0004348C06900F0805070B900BF4048C069E4
:1010000040F080503E49C8610846C06900F08050F9
:10101000009000BF00BF01273A48006800F48070CC
:10102000B0B93848006840F4807036490860FFF76E
:10103000B5FD064606E0FFF7B1FD801B642801D927
:101040000320F8BD2F48006800F480700028F2D01B
:101050002B48006A00F440752DB3A08800F440705E
:10106000A84220D02648006A20F440750120264975
:101070000860002008602248056205F0010090B178
:10108000FFF78CFD064608E0FFF788FD801B41F264
:101090008831884201D90320D3E71948006A00F05B
:1010A00002000028F0D01648006A20F44070616801
:1010B000084313490862012F04D10846C06920F093
:1010C0008050C86100BF207800F00200022807D1DC
:1010D0000B48406820F44040A16808430849486034
:1010E000207800F01000102807D10548406820F44F
:1010F000800061690843024948600020A1E70000C0
:1011000000100240007000404004424270B50446A6
:101110000D460CB9012070BD5A48006800F0070068
:10112000A8420ED25748006820F0070028435549CE
:1011300008600846006800F00700A84201D00120BE
:10114000E9E7207800F0020002281DD1207800F0A5
:101150000400042805D14C48406840F4E0604A4946
:101160004860207800F00800082805D1464840680B
:1011700040F46050444948604348406820F0F00023
:10118000A168084340494860207800F0010078B326
:101190006068012806D13C48006800F4003090B92E
:1011A0000120B8E76068022806D13748006800F0DF
:1011B000007040B90120AEE73348006800F002003B
:1011C00008B90120A7E73048406820F003006168B3
:1011D00008432D494860FFF7E1FC064609E0FFF7A8
:1011E000DDFC801B41F28831884202D9032092E75E
:1011F00007E02548406800F00C006168B0EB810F03
:10120000EDD12048006800F00700A8420ED91D4823
:10121000006820F0070028431A4908600846006863
:1012200000F00700A84201D0012074E7207800F008
:101230000400042807D11448406820F4E060E16805
:10124000084311494860207800F00800082808D1B8
:101250000D48406820F46050216940EAC1000A4905
:10126000486000F051F808494968C1F30311074A82
:10127000515CC8400649086006480068FFF7B4FCA6
:10128000002048E7002002400010024040340008DF
:10129000140000200C0000200F2202600D4A52684A
:1012A00002F0030242600B4A526802F0F0028260D0
:1012B000084A526802F4E062C260064A526802F4C8
:1012C0006052D2080261044A126802F007020A6002
:1012D00070470000001002400020024001480068F2
:1012E000704700001400002000B5FFF7F7FF044925
:1012F0004968C1F3C221034A515CC84000BD0000E7
:101300000010024050340008F0B585B00FF26C0CAC
:101310009CE8E01001A8A0E8E0101CA52D6800954D
:1013200000210022002300240020194D696801F0EB
:101330000C05F5B1042D02D0082D19D101E0154896
:1013400019E001ADC1F38346AC5D01F4803555B1C0
:101350000F4D6D68C5F340451DF805200D4D6543E3
:10136000B5FBF2F302E00C4D04FB05F3184602E076
:1013700000BF084800BF00BF05B0F0BD0203040570
:10138000060708090A0B0C0D0E0F101001020000D1
:101390000010024000127A0000093D00F8B5044632
:1013A0000CB90120F8BD207800F00100002878D0A9
:1013B000F848406800F00C0004280CD0F54840685C
:1013C00000F00C00082811D1F248406800F4803089
:1013D000B0F5803F0AD1EF48006800F400300028E3
:1013E0005FD0606800285CD10120DBE700BF606847
:1013F000B0F5803F06D1E748006840F48030E54909
:10140000086028E0606858B9E248006820F480303D
:10141000E04908600846006820F4802008601AE06F
:101420006068B0F5A02F0BD1DA48006840F4802046
:10143000D84908600846006840F4803008600AE037
:10144000D448006820F48030D2490860084600681B
:1014500020F48020086000BF606888B1FFF79EFB21
:10146000054606E0FFF79AFB401B642801D90320DC
:1014700098E7C848006800F400300028F2D010E077
:10148000FFF78CFB054606E0FFF788FB401B64284E
:1014900001D9032086E7BF48006800F40030002827
:1014A000F2D1207800F00200022857D1B9484068F4
:1014B00000F00C0050B1B748406800F00C0008285C
:1014C00018D1B448406800F4803098B9B148006839
:1014D00000F0020020B12069012801D0012061E75D
:1014E000AC48006820F0F800616940EAC100A949F1
:1014F000086033E02069E8B10120A7490860FFF7E0
:101500004DFB054606E0FFF749FB401B022801D9C9
:10151000032047E79F48006800F002000028F2D04F
:101520009C48006820F0F800616940EAC1009949D0
:10153000086013E0002098490860FFF72FFB05467C
:1015400006E0FFF72BFB401B022801D9032029E707
:101550009048006800F002000028F2D1207800F0E6
:10156000080008282DD1A069B8B101208B49086076
:10157000FFF714FB054606E0FFF710FB401B0228AF
:1015800001D903200EE78348406A00F002000028DA
:10159000F2D0012001F008F813E000207F49086034
:1015A000FFF7FCFA054606E0FFF7F8FA401B0228B1
:1015B00001D90320F6E67748406A00F002000028CF
:1015C000F2D1207800F00400042873D1002771487C
:1015D000C06900F0805070B900BF6E48C06940F02B
:1015E00080506C49C8610846C06900F08050009086
:1015F00000BF00BF01276A48006800F48070B0B9DE
:101600006748006840F4807065490860FFF7C6FAD3
:10161000054606E0FFF7C2FA401B642801D9032003
:10162000C0E65F48006800F480700028F2D000BF78
:10163000E068012806D15748006A40F0010055498A
:10164000086227E0E06858B95248006A20F00100BB
:10165000504908620846006A20F00400086219E058
:10166000E06805280BD14B48006A40F00400494966
:1016700008620846006A40F0010008620AE0454836
:10168000006A20F00100434908620846006A20F021
:101690000400086200BFE068A0B1FFF77FFA0546CA
:1016A00009E0FFF77BFA401B41F28831884202D9FA
:1016B000032077E622E03748006A00F002000028A5
:1016C000EFD012E0FFF76AFA054608E0FFF766FA86
:1016D000401B41F28831884201D9032062E62D483F
:1016E000006A00F002000028F0D1012F05D129483E
:1016F000C06920F080502749C86100BFE069C8B3C5
:101700002448406800F00C00082860D0E0690228F6
:1017100048D1002020490866FFF740FA054606E058
:10172000FFF73CFA401B022801D903203AE619488A
:10173000006800F000700028F2D1206AB0F5803F08
:1017400007D11448406820F40030A16808431149CB
:101750004860D4E9080108430E49496821F474112E
:1017600008430C49486001200B490866FFF716FA48
:10177000054607E03DE0FFF711FA401B022801D9BA
:1017800003200FE60348006800F000700028F2D044
:101790002FE000000010024000004242800442425C
:1017A00000700040002014490866FFF7F7F905466D
:1017B00006E0FFF7F3F9401B022801D90320F1E509
:1017C0000E48006800F000700028F2D111E0E069D6
:1017D000012800D1E6E50948466806F48031206A10
:1017E000814204D106F47011606A814201D0012067
:1017F000D8E50020D6E5000000004242001002407B
:101800007047704710B504462068006800F001007A
:10181000E0B12068406800F00100B8B1206840687D
:10182000C0F3800048B12046FFF7EBFF6FF00400E3
:10183000216848600420607404E02046FFF7E0FF60
:10184000012060746FF001002168486010BD70478E
:10185000F8B504462068466820688568C5F380109E
:1018600048B905F0010030B1C6F3801018B1204628
:10187000216C8847F8BDC5F3400030B1C6F3C010F5
:1018800018B12046616C8847F4E7C5F3401018B9D9
:10189000C5F38010002871D0C6F3401000286DD029
:1018A000C5F38010F0B194F8510003280ED0606D9C
:1018B00040F00400606500BF002000902068C06810
:1018C000009020688068009000BF0BE000BF0020FF
:1018D00000902068C068009020688068009000BF79
:1018E00000BFC7E7C5F3401088B1606D40F001004C
:1018F000606500BF0020009020688068009020682C
:10190000006820F040002168086000BF00BF606DE3
:1019100070B32068406820F0E00021684860012032
:1019200084F8510006F0020010B906F0010000B37F
:101930002068406820F0030021684860E06C50B1E6
:101940000F48E16C4863E06CFEF7CEFC18B1606DA7
:1019500040F040006065A06C50B10948A16C48633C
:10196000A06CFEF7C1FC18B1606D40F040006065EE
:1019700002E02046FFF76BFF7CE7FFE700BF79E757
:10198000F12500087047704710B5024600BF92F875
:101990003C00012801D1022010BD012082F83C004A
:1019A00000BF022082F83D00106843681068846818
:1019B00023F070030868034324F08004486804435C
:1019C0001068436010688460012082F83D0000BF09
:1019D000002082F83C0000BF00BFDDE710B50446E0
:1019E0000CB9012010BD94F83D0028B9002084F8FE
:1019F0003C00204600F00CF8022084F83D00211D38
:101A0000206800F09DFE012084F83D000020E9E7F9
:101A100038B504460D492068884215D100BF0C48EE
:101A2000C06940F002000A49C8610846C06900F078
:101A30000200009000BF00BF002205211D20FFF71B
:101A40004FF91D20FFF73CF938BD000000040040AD
:101A50000010024070B504461A480068401C0A2174
:101A600090FBF1F201FB1200164908604FF47A7006
:101A7000FEF7DAFE144813490968405CC043134975
:101A80000870084600781249097840EA0120114997
:101A9000088008460088FEF7EBFB2068C06840F02D
:101AA00001002168C8602068806800F00705062DE5
:101AB00005D02068006840F001002168086000201F
:101AC00070BD000004000020303400080000002039
:101AD00001000020020000202DE9F04104460D46DF
:101AE00000BF94F83C00012802D10220BDE8F0813B
:101AF000012084F83C0000BF022084F83D002068EB
:101B0000866826F0770626F47F4620688660286877
:101B1000502833D00CDC202850D004DC00284BD0D7
:101B2000102851D149E0302849D040284CD139E023
:101B300060282DD0702807D0B0F5805F03D0B0F5B5
:101B4000005F41D10DE040E0D5E902136A682068EA
:101B500000F044FE2068866846F0770620688660BC
:101B600033E0D5E902136A68206800F037FE206888
:101B7000806840F480402168886026E0EA686968EF
:101B8000206800F01BFF5021206800F032FE1CE0AE
:101B9000EA686968206800F024FF6021206800F08E
:101BA00028FE12E0EA686968206800F007FF40211B
:101BB000206800F01EFE08E000BF00BF00BF2968DB
:101BC000206800F016FE00E000BF00BF012084F88E
:101BD0003D0000BF002084F83C0000BF00BF85E747
:101BE000704710B5044620680069C0F34000D8B1C2
:101BF0002068C068C0F34000B0B16FF002002168F7
:101C00000861012020772068806900F0030018B186
:101C10002046FFF7E5FF05E0204600F0D9F8204612
:101C200000F076F90020207720680069C0F380007A
:101C3000D8B12068C068C0F38000B0B16FF0040074
:101C400021680861022020772068806900F44070D4
:101C500018B12046FFF7C4FF05E0204600F0B8F8B1
:101C6000204600F055F90020207720680069C0F375
:101C7000C000D8B12068C068C0F3C000B0B16FF038
:101C8000080021680861042020772068C06900F0FE
:101C9000030018B12046FFF7A3FF05E0204600F03F
:101CA00097F8204600F034F900202077206800697A
:101CB000C0F30010D8B12068C068C0F30010B0B104
:101CC0006FF0100021680861082020772068C06943
:101CD00000F4407018B12046FFF782FF05E020466F
:101CE00000F076F8204600F013F9002020772068F5
:101CF000006900F0010058B12068C06800F00100E0
:101D000030B16FF0010021680861204600F002F94F
:101D100020680069C0F3C01058B12068C068C0F3E3
:101D2000C01030B16FF08000216808612046FFF7D5
:101D300029FE20680069C0F3801058B12068C0688F
:101D4000C0F3801030B16FF0400021680861204678
:101D500000F0ECF820680069C0F3401058B120682A
:101D6000C068C0F3401030B16FF0200021680861F6
:101D70002046FFF708FE10BD10B586B004460020CF
:101D800002900390049005900E492068884216D175
:101D900000BF0D48806940F008000B498861084683
:101DA000806900F00800019000BF00BF022002908F
:101DB00003900120059002A90448FEF749FD06B0F2
:101DC00010BD00000004004000100240000C014063
:101DD000704770B504460D46164600BF94F83C00A7
:101DE000012801D1022070BD012084F83C0000BF11
:101DF000022084F83D0036B1042E1BD0082E31D0CD
:101E00000C2E5ED145E02946206800F0FBFC2068DE
:101E1000806940F00800216888612068806920F0AE
:101E20000400216888612068806929690843216865
:101E3000886147E02946206800F01CFD2068806921
:101E400040F40060216888612068806920F4806027
:101E50002168886120688069296940EA0120216839
:101E600088612FE02946206800F042FD2068C069A3
:101E700040F008002168C8612068C06920F00400B3
:101E80002168C8612068C069296908432168C86160
:101E900018E02946206800F067FD2068C06940F41A
:101EA00000602168C8612068C06920F480602168F2
:101EB000C8612068C069296940EA01202168C861B9
:101EC00000E000BF00BF012084F83D0000BF0020FB
:101ED00084F83C0000BF00BF85E710B504460CB98C
:101EE000012010BD94F83D0028B9002084F83C0082
:101EF000204600F00CF8022084F83D00211D2068E7
:101F000000F01EFC012084F83D000020E9E7704746
:101F10007047000010B5044603492068884201D18B
:101F2000FEF742FE10BD0000002C014070477047D4
:101F30002DE9F0470446206805682068C6682068D7
:101F400047694FF00008C14605F00F08B8F1000FCF
:101F50000AD105F0200038B106F0200020B120465B
:101F600000F07DFDBDE8F087B8F1000F6DD007F0FF
:101F7000010018B906F49070002866D005F0010041
:101F800030B106F4807018B1E06B40F00100E063FE
:101F900005F0040030B107F0010018B1E06B40F02B
:101FA0000200E06305F0020030B107F0010018B153
:101FB000E06B40F00400E06305F0080030B107F08A
:101FC000010018B1E06B40F00800E063E06B68B31B
:101FD00005F0200028B106F0200010B1204600F0E6
:101FE0003EFD20684069C0F38019E06B00F00800F6
:101FF00010B9B9F1000F22D0204600F010FD206882
:10200000406900F04000B0B12068406920F0400015
:1020100021684861606B50B11748616B4863606B21
:10202000FEF762F910B1606B416B88470CE0204607
:10203000FFF77DFF08E02046FFF779FF04E0204628
:10204000FFF775FF0020E0638CE705F0800030B1FA
:1020500006F0800018B1204600F054FD82E705F03C
:10206000400030B106F0400018B1204600F0E7FC17
:1020700078E700BF76E700000B2A0008704770473A
:1020800000BFFEE700B585B00020019002900390EC
:10209000049000BF2F48806940F010002D498861EE
:1020A0000846806900F01000009000BF00BF00BF2C
:1020B0000846806940F0080088610846806900F0A1
:1020C0000800009000BF00BF00BF0846806940F0D4
:1020D000040088610846806900F00400009000BF99
:1020E00000BF00221E211C48FEF752FD00224FF6C1
:1020F00028711A48FEF74CFD00224FF400411848A1
:10210000FEF746FD1E200190012002900020039062
:102110000220049001A91048FEF79AFB4FF62A709E
:10212000019001200290002003900220049001A958
:102130000A48FEF78DFB4FF4004001900120029009
:10214000002003900220049001A90548FEF780FBBF
:1021500005B000BD0010024000100140000C01401D
:102160000008014000B58DB0002009900A900B9046
:102170000C90079008901C216846FEF748F820480C
:10218000204908600A20486000211E4881606421BF
:10219000C1600021016180218161FFF71FFC08B14E
:1021A000FEF765F84FF48050099009A91548FFF72C
:1021B00093FC08B1FEF75BF81248FFF78EFE08B1FA
:1021C000FEF755F800200790089007A90D48FFF783
:1021D000DBFB08B1FEF74BF8602000900020019077
:1021E0000290042004900C2269460648FFF7F1FD96
:1021F00008B1FEF73CF80348FFF7BEFD0DB000BD87
:10220000000400403401002000BFFEE770472DE9C4
:10221000F0470546BDE12868B0F8449009F00F0684
:10222000002E7ED109F01000B0BB00BF29680988DC
:1022300048F60F7201EA020040F400412A6811805A
:1022400000BF05F128042868B0F85010207801EB91
:10225000C000801C296801F5806131F81000C0F3CE
:102260000900E061E1696069084460610021284675
:10227000FEF788FD95F824000028CBD0A06900283F
:10228000C8D195F8240040F080002968A1F84C00DE
:10229000002085F824007CE1FFE705F594742868A8
:1022A000B0F8008008F4006030B32868B0F850102F
:1022B000207801EBC000801D296801F5806131F8AC
:1022C0001000C0F30900E061A18B8BB2E28805F534
:1022D0000C71286800F090FE00BF2968098840F65C
:1022E0008F7201EA020040F080012A68118000BF6D
:1022F0002846FEF770FE4CE108F40040002889D023
:1023000000BF2968098840F68F7201EA020040F098
:1023100080012A68118000BF2868B0F8501020782A
:1023200000E069E001EBC000801D296801F58061D3
:1023300031F81000C0F30900E061E06990B1606914
:1023400080B1B4F81CC01FFA8CF3E2886169286878
:1023500000F052FEE169606908446061002128468E
:10236000FEF711FD00BF2A682968B1F850100A4431
:1023700002F20C41084600BF236953B9038848F2B2
:10238000FF3C03EA0C030380038843F4004303800B
:102390001EE023693E2B0DD800BF23695908237C1A
:1023A00003F0010303B1491C4FF6FF7303EA8123D5
:1023B00003800DE000BF23695909237C03F01F034C
:1023C00003B9491E4FF4004343EA8123038000BF51
:1023D00000BF00BF00BF296809884BF68F7201EA71
:1023E000020080F4805080F4005040F4004141F03D
:1023F00080012A681180CCE07100286830F81180D3
:1024000008F4004000287ED000BF7200296831F82F
:10241000121040F68F7201EA020040F08001730052
:102420002A6822F8131000BF05F5947000EB4614DB
:10243000207BB0B92868B0F85010207801EBC000BC
:10244000801D296801F5806131F81000C0F309078B
:10245000002F4FD0E28861693B46286800F0CCFD30
:1024600048E021784900286830F8110000F48040E5
:10247000A8B12868B0F85010207801EBC000801C8B
:10248000296801F5806131F81000C0F30907DFB158
:10249000228961693B46286800F0AEFD14E0286897
:1024A000B0F85010207801EBC000801D296801F5BC
:1024B000806131F81000C0F309072FB162896169AA
:1024C0003B46286800F098FD00BF00BF227852000C
:1024D000296831F8121048F68F7201EA020040F4C0
:1024E000004141F0C00123785B002A6822F81310F4
:1024F00000BF00BFE0693844E06160693844606152
:10250000A06920B100E00DE02069B84204D921782B
:102510002846FEF738FC05E021782846D4E9052353
:10252000FEF732FC08F0800060B305F1280000EBF4
:10253000461400BF7200296831F8121048F60F7275
:1025400001EA020040F4004173002A6822F81310E7
:1025500000BF2868B0F85010207801EBC000801C44
:10256000296801F5806131F81000C0F30900E061CD
:10257000E169606908446061A06920B92178284652
:10258000FEF700FC05E021782846D4E90523FEF794
:102590001FFC2868B0F8440000F4004000287FF4D5
:1025A0003AAEBDE8F087000008B508490968C908D7
:1025B0004FF47A72B1FBF2F14143009100BF00BFCA
:1025C00000994A1E00920029F9D108BD140000208C
:1025D00010B50248FFF716F910BD00008400002076
:1025E00010B50248FFF734F910BD00009800002034
:1025F00070B505466C6A0020E087E0862046FFF74C
:1026000026F970BD10B500BF502080F31188BFF3CC
:102610004F8FBFF36F8F00BF00F066FE18B14FF011
:1026200080500449086000BF002080F3118800BF7B
:1026300010BD000004ED00E000B595B028210BA806
:10264000FDF7E5FD142106A8FDF7E1FD1821684618
:10265000FDF7DDFD0A200B9001200F901020109057
:102660000120119002201290002113914FF42011AB
:1026700014910BA8FEF792FE08B1FDF7F8FD0F20AC
:10268000069002200790002008904FF4A060099067
:1026900000200A90012106A8FEF738FD08B1FDF7D9
:1026A000E6FD132000904FF4007001904FF440407D
:1026B00002904FF4800005906846FEF78FFC08B149
:1026C000FDF7D5FD15B000BD1148006840F00100D0
:1026D0000F490860084640680E4908400C494860A8
:1026E000084600680C490840094908600846006827
:1026F00020F4802008600846406820F4FE0048600E
:102700004FF41F008860C803044908607047000048
:10271000001002400000FFF8FFFFF6FE08ED00E0A9
:1027200010B50248FFF75DFA10BD0000A4040020B8
:1027300010B50248FFF755FA10BD00003401002023
:1027400010B50268204B98420ED0204B98420BD017
:10275000B0F1804F08D01E4B984205D01D4B9842D7
:1027600002D01D4B984203D122F070024B681A43ED
:10277000154B98420ED0154B98420BD0B0F1804FBC
:1027800008D0134B984205D0124B984202D0124BFE
:10279000984203D122F44072CB681A4322F080039E
:1027A0004C6943EA040202608B68C3620B6883626F
:1027B000054B984202D0054B984201D10B69036347
:1027C0000123436110BD0000002C01400034014092
:1027D0000004004000080040000C004030B50C46EA
:1027E000816821F47F4142EA032525432943816022
:1027F00030BD0A46816821F0700142F00703194399
:102800008160704730B5056A25F001050562026AEE
:102810004368846924F0700424F003040D682C4399
:1028200022F002028D682A43104DA84200D103E035
:102830000F4DA84206D100BF22F00802CD682A43FE
:1028400022F00402094DA84202D0094DA84207D146
:1028500023F4807323F400734D692B438D692B435C
:10286000436084614D684563026230BD002C0140C5
:102870000034014030B5056A25F010050562026A92
:102880004368846924F4E04424F440740D6844EA05
:10289000052422F020028D6842EA0512124DA8425A
:1028A00000D103E0114DA84207D100BF22F0800201
:1028B000CD6842EA051222F040020B4DA84202D038
:1028C0000A4DA84209D123F4806323F400634D69C3
:1028D00043EA85038D6943EA8503436084614D685B
:1028E0008563026230BD0000002C014000340140CD
:1028F00030B5056A25F480750562026A4368C469CB
:1029000024F0700424F003040D682C4322F40072B8
:102910008D6842EA0522124DA84200D103E0114D14
:10292000A84207D100BF22F40062CD6842EA052226
:1029300022F480620A4DA84202D00A4DA84209D171
:1029400023F4805323F400534D6943EA05138D6942
:1029500043EA05134360C4614D68C563026230BD3C
:10296000002C01400034014030B5056A25F4805543
:102970000562036A4468C26922F4E04222F44072AC
:102980000D6842EA052223F400538D6843EA0533BB
:10299000084DA84202D0084DA84204D124F4804436
:1029A0004D6944EA85144460C2614D680564036260
:1029B00030BD0000002C01400034014030B50B4612
:1029C0001446026A056A25F001050562816921F055
:1029D000F00141EA041122F00A021A438161026205
:1029E00030BD30B50B461446056A25F0100505626A
:1029F0008169026A21F4704141EA043122F0A002A7
:102A000042EA03128161026230BD70B505466C6A0C
:102A10000020E085E0842046FFF789FA70BD016858
:102A2000C96821F490710268D1600168496921F098
:102A3000010102685161202180F83A10704710B5F9
:102A400004462068C06820F040002168C86020204B
:102A500084F839002046FFF712FB002010BD70B546
:102A6000044694F83A0022284AD1A068B0F5805F65
:102A700013D1A56A206940B920684068C0F30800F6
:102A80002880A06A801CA06219E020684068C0B25B
:102A90002880A06A401CA06211E0206938B9206833
:102AA0004068C1B2A26A501CA062117007E02068A1
:102AB000406800F07F01A26A501CA0621170E08D96
:102AC000401E80B2E085C8B92068C06820F02000B0
:102AD0002168C8602068C06820F480702168C860E0
:102AE0002068406920F0010021684861202084F8B6
:102AF0003A002046FFF7C2FA002070BD0020FCE734
:102B00000220FAE7014691F8390021282CD1886883
:102B1000B0F5805F0FD10A6A1088C0F308000B6817
:102B20005860086918B9086A801C086209E0086AD8
:102B3000401C086205E00B6A581C086218780B6894
:102B40005860C88C401E80B2C88458B90868C068F4
:102B500020F080000B68D8600868C06840F0400032
:102B60000B68D860002070470220FCE710B50248CF
:102B7000FFF7DEF910BD00007401002010B5024817
:102B8000FFF7D6F910BD0000B40100202DE9F04395
:102B900006460C466078012871D12169A0698842F7
:102BA00004D92569A069401BA06102E0A569002045
:102BB000A061207BA0B9ABB2E2883046616900F029
:102BC00047FA00BF3046B6F850201044227802235E
:102BD00003EBC20200F5806303EB42010D80E2E0EB
:102BE0002078400036F8100000F0400000285AD04D
:102BF00000BF3346607880BB00BF3246B6F8501045
:102C00000A4421784FF0060808EBC10102F58068FC
:102C100008EB4101084600BF75B9B0F8008048F2E2
:102C2000FF3908EA0908A0F80080B0F8008048F4ED
:102C30000048A0F8008020E03E2D0FD800BF6908B2
:102C400005F00108B8F1000F00D0491C4FF6FF78DD
:102C500008EA8128A0F800800FE011E000BF6909B0
:102C600005F01F08B8F1000F00D1491E4FF40048CD
:102C700048EA8128A0F8008000BF00BF10E0A8E06B
:102C8000607801280CD1B6F8500003442078062162
:102C900001EBC00003F5806101EB400CACF8005083
:102CA00000BF67894EE000BF6078B0BB00BF32460E
:102CB000B6F850100A442178022303EBC10102F553
:102CC000806303EB4101084600BF55B9038848F211
:102CD000FF3C03EA0C030380038843F400430380B2
:102CE00019E03E2D0BD800BF690805F0010303B1C0
:102CF000491C4FF6FF7303EA812303800BE000BFFA
:102D0000690905F01F0303B9491E4FF4004343EA64
:102D10008123038000BF00BF12E0FFE76078012835
:102D20000ED100BF3046B6F850201044227802235E
:102D300003EBC20200F5806303EB42010D8000BF8C
:102D400000BF2789ABB23A463046616900F080F98E
:102D500000BF607888B900BF2178490036F81110AB
:102D600048F68F7201EA020040F4004141F0C001D0
:102D70002278520026F8121014E06078012811D150
:102D800000BF2178490036F8111048F68F7201EA29
:102D9000020040F4004141F481412278520026F8BB
:102DA000121000BF00BF00BF2178490036F8111093
:102DB00048F6BF7201EA020080F0100080F02000A7
:102DC00040F4004141F080012278520026F81210B0
:102DD00003E12169A069884204D92569A069401BE3
:102DE000A06102E0A5690020A061207BB0BB00BF0C
:102DF0003246B6F850100A442178062303EBC1018D
:102E000002F5806303EB4101084600BF55B9038812
:102E100048F2FF3C03EA0C030380038843F40043B9
:102E2000038019E03E2D0BD800BF690805F00103AF
:102E300003B1491C4FF6FF7303EA812303800BE0C3
:102E400000BF690905F01F0303B9491E4FF4004391
:102E500043EA8123038000BF00BFA8E0FFE700BF73
:102E600000BF6078B0BB00BF3246B6F850100A44CD
:102E70002178022303EBC10102F5806303EB4101DA
:102E8000084600BF55B9038848F2FF3C03EA0C032B
:102E90000380038843F40043038019E03E2D0BD8E0
:102EA00000BF690805F0010303B1491C4FF6FF7329
:102EB00003EA812303800BE000BF690905F01F03CB
:102EC00003B9491E4FF4004343EA8123038000BF46
:102ED00000BF12E0FFE7607801280ED100BF304646
:102EE000B6F8502010442278022303EBC20200F50A
:102EF000806303EB42010D8000BF00BF00BF33467B
:102F0000607880BB00BF3246B6F850100A44217882
:102F10004FF0060808EBC10102F5806808EB41019B
:102F2000084600BF75B9B0F8008048F2FF3908EADA
:102F30000908A0F80080B0F8008048F40048A0F824
:102F4000008020E03E2D0FD800BF690805F0010881
:102F5000B8F1000F00D0491C4FF6FF7808EA81282D
:102F6000A0F800800FE010E000BF690905F01F081D
:102F7000B8F1000F00D1491E4FF4004848EA8128FB
:102F8000A0F8008000BF00BF0FE0607801280CD1DE
:102F9000B6F8500003442078062101EBC00003F589
:102FA000806101EB400CACF8005000BF00BF00BFD7
:102FB0002178490036F811104BF68F7201EA0200B1
:102FC00080F4805080F4005040F4004141F08001D2
:102FD0002278520026F8121000BF0020BDE8F083CE
:102FE00010B50248FDF719FF10BD0000380200209F
:102FF0000146B1F8440070472DE9F04304460E46FF
:1030000015464FEA530CA046304608F5806909EB97
:10301000450267460AE01188921C0170401C4FEA85
:10302000112980F80090401C921C7F1E002FF2D1C5
:1030300003F00109B9F1000F01D011880170BDE85A
:10304000F083024611B98020A2F84C00002070479E
:103050002DE9F04704460D461E4606F1010A4FEAE7
:103060005A08A146284609F5806A0AEB42034746FA
:103070000BE090F800C0401C90F800A04CEA0A2138
:1030800019809B1C9B1C401C7F1E002FF1D1BDE8AA
:10309000F08700BFFEE7000002480068C0F302208E
:1030A000704700000CED00E010B5002804DB0A07B3
:1030B000130E054A135406E00A07140E034A00F0E3
:1030C0000F031B1FD45410BD00E400E018ED00E016
:1030D00002E008C8121F08C1002AFAD170477047E1
:1030E000002001E001C1121F002AFBD170470146F8
:1030F00004E0002000E0401C6428FCDB0A1EA1F173
:103100000101F6D170470000FDF75AFDFFF794FA70
:10311000FEF7B8FFFFF726F82F48FEF79BFC2F4875
:10312000006820F020002D4908600846006820F063
:10313000080008602A48006820F400402849086018
:103140002648006820F0020024490860084600680C
:1031500040F4807008600846006840F480600860B1
:103160000846006840F4006008600846006840F4C3
:10317000805008600846006840F400500860084627
:10318000006840F4804008600846006840F4004051
:1031900008601448C06840F001001249C860084641
:1031A000C06840F00200C8600846C06840F00400F3
:1031B000C8600846C06840F00800C8600846C0689B
:1031C00040F01000C8600548006820F40070034912
:1031D000086000BFFEE70000340100200C0C014035
:1031E0000C080140001001400A490968096809B942
:1031F000012100E0002121B14FF0FF31064A1160AA
:1032000006E004490968C968C868034A4168116052
:10321000704700001C0000204800002001460A6999
:10322000D1E901309860D1E90103586050688842C3
:1032300001D188685060002008611068401E10604D
:103240001068704742684A6093688B609368596061
:103250009160086103685B1C036070471D4800684B
:1032600018B101201C49086032E000201A490860AA
:103270001A480068B0FA80F0C0F11F0101EB81002C
:10328000174A52F8200008B1012000E0002050B990
:1032900000BF502080F31188BFF34F8FBFF36F8FB3
:1032A00000BF00BFFEE701EB81020D4B03EB820084
:1032B00042685268426000F108024368934202D1BA
:1032C0004268526842604268D268064B1A6000BF8A
:1032D00070470000500000203C000020300000201B
:1032E000E4040020180000202DE9F0414FF0000810
:1032F00044480068002877D143480068451C42488C
:10330000056015BB41480068006808B9012000E06D
:10331000002050B900BF502080F31188BFF34F8FB9
:10332000BFF36F8F00BF00BFFEE73848076838481B
:103330000068364908603648076036480068401C17
:1033400034490860FFF750FF00BF334800688542EA
:103350003CD300BF2D480068006808B9012000E098
:10336000002020B14FF0FF302B4908602DE02748A6
:103370000068C068C4686668B54202D22648066024
:1033800023E0201DFFF74AFFA06A18B104F11800DE
:10339000FFF744FF94F82C10012088401F4909686A
:1033A00008431E490860E16A01EB81011C4A02EBF7
:1033B0008100211DFFF746FF1A49E06A0968C96AC2
:1033C0008842C7D34FF00108C4E700BF1548006822
:1033D000C06A00EB8000124951F82000012801D991
:1033E0004FF0010805E0FFE70F480068401C0E4958
:1033F00008600E48006808B14FF001084046BDE87B
:10340000F0810000500000202C0000201C00002053
:103410002000002040000020480000203000002054
:10342000E404002018000020380000203C000020A8
:10343000C0F9A4B0999282F880908883C6A1868E44
:103440000000000000000000010203040607080954
:10345000000000000102030478340008000000208E
:1034600054000000D0300008CC3400085400002084
:1034700084090000E03000080000000000000000A7
:103480000000000010000000010000000024F40013
:10349000000000000000000000000000000000002C
:1034A000000000000000000000000000000000001C
:1034B000000000000000000000000000000000000C
:0C34C00000000000000000000000000000
:0400000508000131BD
:00000001FF
